{
  "_format": "hh-sol-artifact-1",
  "contractName": "Files",
  "sourceName": "contracts/Files.sol",
  "abi": [
    {
      "anonymous": false,
      "inputs": [
        {
          "indexed": true,
          "internalType": "address",
          "name": "sender",
          "type": "address"
        },
        {
          "indexed": true,
          "internalType": "address",
          "name": "receiver",
          "type": "address"
        },
        {
          "indexed": false,
          "internalType": "string",
          "name": "url",
          "type": "string"
        }
      ],
      "name": "FileReceived",
      "type": "event"
    },
    {
      "anonymous": false,
      "inputs": [
        {
          "indexed": true,
          "internalType": "address",
          "name": "sender",
          "type": "address"
        },
        {
          "indexed": true,
          "internalType": "address",
          "name": "receiver",
          "type": "address"
        },
        {
          "indexed": false,
          "internalType": "string",
          "name": "url",
          "type": "string"
        }
      ],
      "name": "FileSent",
      "type": "event"
    },
    {
      "inputs": [
        {
          "internalType": "uint256",
          "name": "_index",
          "type": "uint256"
        }
      ],
      "name": "deleteReceivedFile",
      "outputs": [],
      "stateMutability": "nonpayable",
      "type": "function"
    },
    {
      "inputs": [
        {
          "internalType": "uint256",
          "name": "_index",
          "type": "uint256"
        }
      ],
      "name": "deleteSentFile",
      "outputs": [],
      "stateMutability": "nonpayable",
      "type": "function"
    },
    {
      "inputs": [],
      "name": "getReceivedFiles",
      "outputs": [
        {
          "components": [
            {
              "internalType": "string",
              "name": "url",
              "type": "string"
            },
            {
              "internalType": "address",
              "name": "sender",
              "type": "address"
            },
            {
              "internalType": "address",
              "name": "receiver",
              "type": "address"
            }
          ],
          "internalType": "struct Files.File[]",
          "name": "",
          "type": "tuple[]"
        }
      ],
      "stateMutability": "view",
      "type": "function"
    },
    {
      "inputs": [],
      "name": "getSentFiles",
      "outputs": [
        {
          "components": [
            {
              "internalType": "string",
              "name": "url",
              "type": "string"
            },
            {
              "internalType": "address",
              "name": "sender",
              "type": "address"
            },
            {
              "internalType": "address",
              "name": "receiver",
              "type": "address"
            }
          ],
          "internalType": "struct Files.File[]",
          "name": "",
          "type": "tuple[]"
        }
      ],
      "stateMutability": "view",
      "type": "function"
    },
    {
      "inputs": [
        {
          "internalType": "address",
          "name": "_receiver",
          "type": "address"
        },
        {
          "internalType": "string",
          "name": "_url",
          "type": "string"
        }
      ],
      "name": "sendFile",
      "outputs": [],
      "stateMutability": "nonpayable",
      "type": "function"
    }
  ],
  "bytecode": "0x608060405234801561001057600080fd5b506112ee806100206000396000f3fe608060405234801561001057600080fd5b50600436106100575760003560e01c80634729025e1461005c5780635b67a5311461007a578063943cdfb814610098578063abc140bd146100b4578063c842f371146100d0575b600080fd5b6100646100ec565b6040516100719190610c7d565b60405180910390f35b6100826102c5565b60405161008f9190610c7d565b60405180910390f35b6100b260048036038101906100ad9190610ce9565b61049f565b005b6100ce60048036038101906100c99190610ce9565b6105e6565b005b6100ea60048036038101906100e59190610e77565b61072b565b005b60606000803373ffffffffffffffffffffffffffffffffffffffff1673ffffffffffffffffffffffffffffffffffffffff168152602001908152602001600020805480602002602001604051908101604052809291908181526020016000905b828210156102bc578382906000526020600020906003020160405180606001604052908160008201805461017f90610f02565b80601f01602080910402602001604051908101604052809291908181526020018280546101ab90610f02565b80156101f85780601f106101cd576101008083540402835291602001916101f8565b820191906000526020600020905b8154815290600101906020018083116101db57829003601f168201915b505050505081526020016001820160009054906101000a900473ffffffffffffffffffffffffffffffffffffffff1673ffffffffffffffffffffffffffffffffffffffff1673ffffffffffffffffffffffffffffffffffffffff1681526020016002820160009054906101000a900473ffffffffffffffffffffffffffffffffffffffff1673ffffffffffffffffffffffffffffffffffffffff1673ffffffffffffffffffffffffffffffffffffffff16815250508152602001906001019061014c565b50505050905090565b6060600160003373ffffffffffffffffffffffffffffffffffffffff1673ffffffffffffffffffffffffffffffffffffffff168152602001908152602001600020805480602002602001604051908101604052809291908181526020016000905b82821015610496578382906000526020600020906003020160405180606001604052908160008201805461035990610f02565b80601f016020809104026020016040519081016040528092919081815260200182805461038590610f02565b80156103d25780601f106103a7576101008083540402835291602001916103d2565b820191906000526020600020905b8154815290600101906020018083116103b557829003601f168201915b505050505081526020016001820160009054906101000a900473ffffffffffffffffffffffffffffffffffffffff1673ffffffffffffffffffffffffffffffffffffffff1673ffffffffffffffffffffffffffffffffffffffff1681526020016002820160009054906101000a900473ffffffffffffffffffffffffffffffffffffffff1673ffffffffffffffffffffffffffffffffffffffff1673ffffffffffffffffffffffffffffffffffffffff168152505081526020019060010190610326565b50505050905090565b600160003373ffffffffffffffffffffffffffffffffffffffff1673ffffffffffffffffffffffffffffffffffffffff168152602001908152602001600020805490508110610523576040517f08c379a000000000000000000000000000000000000000000000000000000000815260040161051a90610f90565b60405180910390fd5b600160003373ffffffffffffffffffffffffffffffffffffffff1673ffffffffffffffffffffffffffffffffffffffff168152602001908152602001600020818154811061057457610573610fb0565b5b9060005260206000209060030201600080820160006105939190610a3d565b6001820160006101000a81549073ffffffffffffffffffffffffffffffffffffffff02191690556002820160006101000a81549073ffffffffffffffffffffffffffffffffffffffff0219169055505050565b6000803373ffffffffffffffffffffffffffffffffffffffff1673ffffffffffffffffffffffffffffffffffffffff168152602001908152602001600020805490508110610669576040517f08c379a000000000000000000000000000000000000000000000000000000000815260040161066090610f90565b60405180910390fd5b6000803373ffffffffffffffffffffffffffffffffffffffff1673ffffffffffffffffffffffffffffffffffffffff16815260200190815260200160002081815481106106b9576106b8610fb0565b5b9060005260206000209060030201600080820160006106d89190610a3d565b6001820160006101000a81549073ffffffffffffffffffffffffffffffffffffffff02191690556002820160006101000a81549073ffffffffffffffffffffffffffffffffffffffff0219169055505050565b6000803373ffffffffffffffffffffffffffffffffffffffff1673ffffffffffffffffffffffffffffffffffffffff16815260200190815260200160002060405180606001604052808381526020013373ffffffffffffffffffffffffffffffffffffffff1681526020018473ffffffffffffffffffffffffffffffffffffffff16815250908060018154018082558091505060019003906000526020600020906003020160009091909190915060008201518160000190816107ee919061118b565b5060208201518160010160006101000a81548173ffffffffffffffffffffffffffffffffffffffff021916908373ffffffffffffffffffffffffffffffffffffffff16021790555060408201518160020160006101000a81548173ffffffffffffffffffffffffffffffffffffffff021916908373ffffffffffffffffffffffffffffffffffffffff1602179055505050600160008373ffffffffffffffffffffffffffffffffffffffff1673ffffffffffffffffffffffffffffffffffffffff16815260200190815260200160002060405180606001604052808381526020013373ffffffffffffffffffffffffffffffffffffffff1681526020018473ffffffffffffffffffffffffffffffffffffffff1681525090806001815401808255809150506001900390600052602060002090600302016000909190919091506000820151816000019081610943919061118b565b5060208201518160010160006101000a81548173ffffffffffffffffffffffffffffffffffffffff021916908373ffffffffffffffffffffffffffffffffffffffff16021790555060408201518160020160006101000a81548173ffffffffffffffffffffffffffffffffffffffff021916908373ffffffffffffffffffffffffffffffffffffffff16021790555050508173ffffffffffffffffffffffffffffffffffffffff163373ffffffffffffffffffffffffffffffffffffffff167f43d1fcf03890399167d742f87284265e9e4879da0bfa69cbd30a369114bcf92c83604051610a319190611296565b60405180910390a35050565b508054610a4990610f02565b6000825580601f10610a5b5750610a7a565b601f016020900490600052602060002090810190610a799190610a7d565b5b50565b5b80821115610a96576000816000905550600101610a7e565b5090565b600081519050919050565b600082825260208201905092915050565b6000819050602082019050919050565b600081519050919050565b600082825260208201905092915050565b60005b83811015610b00578082015181840152602081019050610ae5565b60008484015250505050565b6000601f19601f8301169050919050565b6000610b2882610ac6565b610b328185610ad1565b9350610b42818560208601610ae2565b610b4b81610b0c565b840191505092915050565b600073ffffffffffffffffffffffffffffffffffffffff82169050919050565b6000610b8182610b56565b9050919050565b610b9181610b76565b82525050565b60006060830160008301518482036000860152610bb48282610b1d565b9150506020830151610bc96020860182610b88565b506040830151610bdc6040860182610b88565b508091505092915050565b6000610bf38383610b97565b905092915050565b6000602082019050919050565b6000610c1382610a9a565b610c1d8185610aa5565b935083602082028501610c2f85610ab6565b8060005b85811015610c6b5784840389528151610c4c8582610be7565b9450610c5783610bfb565b925060208a01995050600181019050610c33565b50829750879550505050505092915050565b60006020820190508181036000830152610c978184610c08565b905092915050565b6000604051905090565b600080fd5b600080fd5b6000819050919050565b610cc681610cb3565b8114610cd157600080fd5b50565b600081359050610ce381610cbd565b92915050565b600060208284031215610cff57610cfe610ca9565b5b6000610d0d84828501610cd4565b91505092915050565b610d1f81610b76565b8114610d2a57600080fd5b50565b600081359050610d3c81610d16565b92915050565b600080fd5b600080fd5b7f4e487b7100000000000000000000000000000000000000000000000000000000600052604160045260246000fd5b610d8482610b0c565b810181811067ffffffffffffffff82111715610da357610da2610d4c565b5b80604052505050565b6000610db6610c9f565b9050610dc28282610d7b565b919050565b600067ffffffffffffffff821115610de257610de1610d4c565b5b610deb82610b0c565b9050602081019050919050565b82818337600083830152505050565b6000610e1a610e1584610dc7565b610dac565b905082815260208101848484011115610e3657610e35610d47565b5b610e41848285610df8565b509392505050565b600082601f830112610e5e57610e5d610d42565b5b8135610e6e848260208601610e07565b91505092915050565b60008060408385031215610e8e57610e8d610ca9565b5b6000610e9c85828601610d2d565b925050602083013567ffffffffffffffff811115610ebd57610ebc610cae565b5b610ec985828601610e49565b9150509250929050565b7f4e487b7100000000000000000000000000000000000000000000000000000000600052602260045260246000fd5b60006002820490506001821680610f1a57607f821691505b602082108103610f2d57610f2c610ed3565b5b50919050565b600082825260208201905092915050565b7f496e76616c696420696e64657800000000000000000000000000000000000000600082015250565b6000610f7a600d83610f33565b9150610f8582610f44565b602082019050919050565b60006020820190508181036000830152610fa981610f6d565b9050919050565b7f4e487b7100000000000000000000000000000000000000000000000000000000600052603260045260246000fd5b60008190508160005260206000209050919050565b60006020601f8301049050919050565b600082821b905092915050565b6000600883026110417fffffffffffffffffffffffffffffffffffffffffffffffffffffffffffffffff82611004565b61104b8683611004565b95508019841693508086168417925050509392505050565b6000819050919050565b600061108861108361107e84610cb3565b611063565b610cb3565b9050919050565b6000819050919050565b6110a28361106d565b6110b66110ae8261108f565b848454611011565b825550505050565b600090565b6110cb6110be565b6110d6818484611099565b505050565b5b818110156110fa576110ef6000826110c3565b6001810190506110dc565b5050565b601f82111561113f5761111081610fdf565b61111984610ff4565b81016020851015611128578190505b61113c61113485610ff4565b8301826110db565b50505b505050565b600082821c905092915050565b600061116260001984600802611144565b1980831691505092915050565b600061117b8383611151565b9150826002028217905092915050565b61119482610ac6565b67ffffffffffffffff8111156111ad576111ac610d4c565b5b6111b78254610f02565b6111c28282856110fe565b600060209050601f8311600181146111f557600084156111e3578287015190505b6111ed858261116f565b865550611255565b601f19841661120386610fdf565b60005b8281101561122b57848901518255600182019150602085019450602081019050611206565b868310156112485784890151611244601f891682611151565b8355505b6001600288020188555050505b505050505050565b600061126882610ac6565b6112728185610f33565b9350611282818560208601610ae2565b61128b81610b0c565b840191505092915050565b600060208201905081810360008301526112b0818461125d565b90509291505056fea2646970667358221220e901e05c1e66fec64c7ea8172f7d9ca55696ad056f980f54937d79a0234906e064736f6c63430008180033",
  "linkReferences": {},
  "deployedLinkReferences": {}
}